{
  "_format": "hh-sol-artifact-1",
  "contractName": "NFTMinter",
  "sourceName": "contracts/NFTMinter.sol",
  "abi": [
    {
      "inputs": [
        {
          "internalType": "uint256",
          "name": "_maxSupply",
          "type": "uint256"
        }
      ],
      "stateMutability": "nonpayable",
      "type": "constructor"
    },
    {
      "anonymous": false,
      "inputs": [
        {
          "indexed": true,
          "internalType": "address",
          "name": "owner",
          "type": "address"
        },
        {
          "indexed": true,
          "internalType": "address",
          "name": "approved",
          "type": "address"
        },
        {
          "indexed": true,
          "internalType": "uint256",
          "name": "tokenId",
          "type": "uint256"
        }
      ],
      "name": "Approval",
      "type": "event"
    },
    {
      "anonymous": false,
      "inputs": [
        {
          "indexed": true,
          "internalType": "address",
          "name": "owner",
          "type": "address"
        },
        {
          "indexed": true,
          "internalType": "address",
          "name": "operator",
          "type": "address"
        },
        {
          "indexed": false,
          "internalType": "bool",
          "name": "approved",
          "type": "bool"
        }
      ],
      "name": "ApprovalForAll",
      "type": "event"
    },
    {
      "anonymous": false,
      "inputs": [
        {
          "indexed": true,
          "internalType": "address",
          "name": "recipient",
          "type": "address"
        },
        {
          "indexed": false,
          "internalType": "uint256",
          "name": "tokenId",
          "type": "uint256"
        },
        {
          "indexed": false,
          "internalType": "string",
          "name": "newTokenURI",
          "type": "string"
        }
      ],
      "name": "Minted",
      "type": "event"
    },
    {
      "anonymous": false,
      "inputs": [
        {
          "indexed": true,
          "internalType": "address",
          "name": "previousOwner",
          "type": "address"
        },
        {
          "indexed": true,
          "internalType": "address",
          "name": "newOwner",
          "type": "address"
        }
      ],
      "name": "OwnershipTransferred",
      "type": "event"
    },
    {
      "anonymous": false,
      "inputs": [
        {
          "indexed": true,
          "internalType": "bytes32",
          "name": "role",
          "type": "bytes32"
        },
        {
          "indexed": true,
          "internalType": "bytes32",
          "name": "previousAdminRole",
          "type": "bytes32"
        },
        {
          "indexed": true,
          "internalType": "bytes32",
          "name": "newAdminRole",
          "type": "bytes32"
        }
      ],
      "name": "RoleAdminChanged",
      "type": "event"
    },
    {
      "anonymous": false,
      "inputs": [
        {
          "indexed": true,
          "internalType": "bytes32",
          "name": "role",
          "type": "bytes32"
        },
        {
          "indexed": true,
          "internalType": "address",
          "name": "account",
          "type": "address"
        },
        {
          "indexed": true,
          "internalType": "address",
          "name": "sender",
          "type": "address"
        }
      ],
      "name": "RoleGranted",
      "type": "event"
    },
    {
      "anonymous": false,
      "inputs": [
        {
          "indexed": true,
          "internalType": "bytes32",
          "name": "role",
          "type": "bytes32"
        },
        {
          "indexed": true,
          "internalType": "address",
          "name": "account",
          "type": "address"
        },
        {
          "indexed": true,
          "internalType": "address",
          "name": "sender",
          "type": "address"
        }
      ],
      "name": "RoleRevoked",
      "type": "event"
    },
    {
      "anonymous": false,
      "inputs": [
        {
          "indexed": true,
          "internalType": "address",
          "name": "from",
          "type": "address"
        },
        {
          "indexed": true,
          "internalType": "address",
          "name": "to",
          "type": "address"
        },
        {
          "indexed": true,
          "internalType": "uint256",
          "name": "tokenId",
          "type": "uint256"
        }
      ],
      "name": "Transfer",
      "type": "event"
    },
    {
      "inputs": [],
      "name": "DEFAULT_ADMIN_ROLE",
      "outputs": [
        {
          "internalType": "bytes32",
          "name": "",
          "type": "bytes32"
        }
      ],
      "stateMutability": "view",
      "type": "function"
    },
    {
      "inputs": [],
      "name": "MINTER_ROLE",
      "outputs": [
        {
          "internalType": "bytes32",
          "name": "",
          "type": "bytes32"
        }
      ],
      "stateMutability": "view",
      "type": "function"
    },
    {
      "inputs": [
        {
          "internalType": "address",
          "name": "to",
          "type": "address"
        },
        {
          "internalType": "uint256",
          "name": "tokenId",
          "type": "uint256"
        }
      ],
      "name": "approve",
      "outputs": [],
      "stateMutability": "nonpayable",
      "type": "function"
    },
    {
      "inputs": [
        {
          "internalType": "address",
          "name": "owner",
          "type": "address"
        }
      ],
      "name": "balanceOf",
      "outputs": [
        {
          "internalType": "uint256",
          "name": "",
          "type": "uint256"
        }
      ],
      "stateMutability": "view",
      "type": "function"
    },
    {
      "inputs": [
        {
          "internalType": "uint256",
          "name": "tokenId",
          "type": "uint256"
        }
      ],
      "name": "getApproved",
      "outputs": [
        {
          "internalType": "address",
          "name": "",
          "type": "address"
        }
      ],
      "stateMutability": "view",
      "type": "function"
    },
    {
      "inputs": [
        {
          "internalType": "bytes32",
          "name": "role",
          "type": "bytes32"
        }
      ],
      "name": "getRoleAdmin",
      "outputs": [
        {
          "internalType": "bytes32",
          "name": "",
          "type": "bytes32"
        }
      ],
      "stateMutability": "view",
      "type": "function"
    },
    {
      "inputs": [
        {
          "internalType": "bytes32",
          "name": "role",
          "type": "bytes32"
        },
        {
          "internalType": "address",
          "name": "account",
          "type": "address"
        }
      ],
      "name": "grantRole",
      "outputs": [],
      "stateMutability": "nonpayable",
      "type": "function"
    },
    {
      "inputs": [
        {
          "internalType": "bytes32",
          "name": "role",
          "type": "bytes32"
        },
        {
          "internalType": "address",
          "name": "account",
          "type": "address"
        }
      ],
      "name": "hasRole",
      "outputs": [
        {
          "internalType": "bool",
          "name": "",
          "type": "bool"
        }
      ],
      "stateMutability": "view",
      "type": "function"
    },
    {
      "inputs": [
        {
          "internalType": "address",
          "name": "owner",
          "type": "address"
        },
        {
          "internalType": "address",
          "name": "operator",
          "type": "address"
        }
      ],
      "name": "isApprovedForAll",
      "outputs": [
        {
          "internalType": "bool",
          "name": "",
          "type": "bool"
        }
      ],
      "stateMutability": "view",
      "type": "function"
    },
    {
      "inputs": [],
      "name": "maxSupply",
      "outputs": [
        {
          "internalType": "uint256",
          "name": "",
          "type": "uint256"
        }
      ],
      "stateMutability": "view",
      "type": "function"
    },
    {
      "inputs": [
        {
          "internalType": "address",
          "name": "recipient",
          "type": "address"
        },
        {
          "internalType": "string",
          "name": "newTokenURI",
          "type": "string"
        }
      ],
      "name": "mintNFT",
      "outputs": [
        {
          "internalType": "uint256",
          "name": "",
          "type": "uint256"
        }
      ],
      "stateMutability": "nonpayable",
      "type": "function"
    },
    {
      "inputs": [],
      "name": "name",
      "outputs": [
        {
          "internalType": "string",
          "name": "",
          "type": "string"
        }
      ],
      "stateMutability": "view",
      "type": "function"
    },
    {
      "inputs": [],
      "name": "owner",
      "outputs": [
        {
          "internalType": "address",
          "name": "",
          "type": "address"
        }
      ],
      "stateMutability": "view",
      "type": "function"
    },
    {
      "inputs": [
        {
          "internalType": "uint256",
          "name": "tokenId",
          "type": "uint256"
        }
      ],
      "name": "ownerOf",
      "outputs": [
        {
          "internalType": "address",
          "name": "",
          "type": "address"
        }
      ],
      "stateMutability": "view",
      "type": "function"
    },
    {
      "inputs": [],
      "name": "renounceOwnership",
      "outputs": [],
      "stateMutability": "nonpayable",
      "type": "function"
    },
    {
      "inputs": [
        {
          "internalType": "bytes32",
          "name": "role",
          "type": "bytes32"
        },
        {
          "internalType": "address",
          "name": "account",
          "type": "address"
        }
      ],
      "name": "renounceRole",
      "outputs": [],
      "stateMutability": "nonpayable",
      "type": "function"
    },
    {
      "inputs": [
        {
          "internalType": "address",
          "name": "minter",
          "type": "address"
        }
      ],
      "name": "revokeMinterRole",
      "outputs": [],
      "stateMutability": "nonpayable",
      "type": "function"
    },
    {
      "inputs": [
        {
          "internalType": "bytes32",
          "name": "role",
          "type": "bytes32"
        },
        {
          "internalType": "address",
          "name": "account",
          "type": "address"
        }
      ],
      "name": "revokeRole",
      "outputs": [],
      "stateMutability": "nonpayable",
      "type": "function"
    },
    {
      "inputs": [
        {
          "internalType": "address",
          "name": "from",
          "type": "address"
        },
        {
          "internalType": "address",
          "name": "to",
          "type": "address"
        },
        {
          "internalType": "uint256",
          "name": "tokenId",
          "type": "uint256"
        }
      ],
      "name": "safeTransferFrom",
      "outputs": [],
      "stateMutability": "nonpayable",
      "type": "function"
    },
    {
      "inputs": [
        {
          "internalType": "address",
          "name": "from",
          "type": "address"
        },
        {
          "internalType": "address",
          "name": "to",
          "type": "address"
        },
        {
          "internalType": "uint256",
          "name": "tokenId",
          "type": "uint256"
        },
        {
          "internalType": "bytes",
          "name": "_data",
          "type": "bytes"
        }
      ],
      "name": "safeTransferFrom",
      "outputs": [],
      "stateMutability": "nonpayable",
      "type": "function"
    },
    {
      "inputs": [
        {
          "internalType": "address",
          "name": "operator",
          "type": "address"
        },
        {
          "internalType": "bool",
          "name": "approved",
          "type": "bool"
        }
      ],
      "name": "setApprovalForAll",
      "outputs": [],
      "stateMutability": "nonpayable",
      "type": "function"
    },
    {
      "inputs": [
        {
          "internalType": "uint256",
          "name": "_maxSupply",
          "type": "uint256"
        }
      ],
      "name": "setMaxSupply",
      "outputs": [],
      "stateMutability": "nonpayable",
      "type": "function"
    },
    {
      "inputs": [
        {
          "internalType": "address",
          "name": "minter",
          "type": "address"
        }
      ],
      "name": "setMinterRole",
      "outputs": [],
      "stateMutability": "nonpayable",
      "type": "function"
    },
    {
      "inputs": [
        {
          "internalType": "bytes4",
          "name": "interfaceId",
          "type": "bytes4"
        }
      ],
      "name": "supportsInterface",
      "outputs": [
        {
          "internalType": "bool",
          "name": "",
          "type": "bool"
        }
      ],
      "stateMutability": "view",
      "type": "function"
    },
    {
      "inputs": [],
      "name": "symbol",
      "outputs": [
        {
          "internalType": "string",
          "name": "",
          "type": "string"
        }
      ],
      "stateMutability": "view",
      "type": "function"
    },
    {
      "inputs": [
        {
          "internalType": "uint256",
          "name": "tokenId",
          "type": "uint256"
        }
      ],
      "name": "tokenURI",
      "outputs": [
        {
          "internalType": "string",
          "name": "",
          "type": "string"
        }
      ],
      "stateMutability": "view",
      "type": "function"
    },
    {
      "inputs": [],
      "name": "totalSupply",
      "outputs": [
        {
          "internalType": "uint256",
          "name": "",
          "type": "uint256"
        }
      ],
      "stateMutability": "view",
      "type": "function"
    },
    {
      "inputs": [
        {
          "internalType": "address",
          "name": "from",
          "type": "address"
        },
        {
          "internalType": "address",
          "name": "to",
          "type": "address"
        },
        {
          "internalType": "uint256",
          "name": "tokenId",
          "type": "uint256"
        }
      ],
      "name": "transferFrom",
      "outputs": [],
      "stateMutability": "nonpayable",
      "type": "function"
    },
    {
      "inputs": [
        {
          "internalType": "address",
          "name": "newOwner",
          "type": "address"
        }
      ],
      "name": "transferOwnership",
      "outputs": [],
      "stateMutability": "nonpayable",
      "type": "function"
    },
    {
      "inputs": [
        {
          "internalType": "uint256",
          "name": "tokenId",
          "type": "uint256"
        },
        {
          "internalType": "string",
          "name": "newTokenURI",
          "type": "string"
        }
      ],
      "name": "updateTokenURI",
      "outputs": [],
      "stateMutability": "nonpayable",
      "type": "function"
    }
  ],
  "bytecode": "0x60806040523480156200001157600080fd5b5060405162004a0038038062004a008339818101604052810190620000379190620003bf565b6040518060400160405280600981526020017f4e46544d696e74657200000000000000000000000000000000000000000000008152506040518060400160405280600381526020017f4e465400000000000000000000000000000000000000000000000000000000008152508160009081620000b4919062000661565b508060019081620000c6919062000661565b505050620000e9620000dd6200013e60201b60201c565b6200014660201b60201c565b80600a81905550620001056000801b336200020c60201b60201c565b620001377f9f2df0fed2c77648de5860a4cc508cd0818c85b8b8a1ab4ceeef8d981c8956a6336200020c60201b60201c565b5062000748565b600033905090565b6000600760009054906101000a900473ffffffffffffffffffffffffffffffffffffffff16905081600760006101000a81548173ffffffffffffffffffffffffffffffffffffffff021916908373ffffffffffffffffffffffffffffffffffffffff1602179055508173ffffffffffffffffffffffffffffffffffffffff168173ffffffffffffffffffffffffffffffffffffffff167f8be0079c531659141344cd1fd0a4f28419497f9722a3daafe3b4186f6b6457e060405160405180910390a35050565b6200021e82826200022260201b60201c565b5050565b6200023482826200031460201b60201c565b620003105760016008600084815260200190815260200160002060000160008373ffffffffffffffffffffffffffffffffffffffff1673ffffffffffffffffffffffffffffffffffffffff16815260200190815260200160002060006101000a81548160ff021916908315150217905550620002b56200013e60201b60201c565b73ffffffffffffffffffffffffffffffffffffffff168173ffffffffffffffffffffffffffffffffffffffff16837f2f8788117e7eff1d82e926ec794901d17c78024a50270940304540a733656f0d60405160405180910390a45b5050565b60006008600084815260200190815260200160002060000160008373ffffffffffffffffffffffffffffffffffffffff1673ffffffffffffffffffffffffffffffffffffffff16815260200190815260200160002060009054906101000a900460ff16905092915050565b600080fd5b6000819050919050565b620003998162000384565b8114620003a557600080fd5b50565b600081519050620003b9816200038e565b92915050565b600060208284031215620003d857620003d76200037f565b5b6000620003e884828501620003a8565b91505092915050565b600081519050919050565b7f4e487b7100000000000000000000000000000000000000000000000000000000600052604160045260246000fd5b7f4e487b7100000000000000000000000000000000000000000000000000000000600052602260045260246000fd5b600060028204905060018216806200047357607f821691505b6020821081036200048957620004886200042b565b5b50919050565b60008190508160005260206000209050919050565b60006020601f8301049050919050565b600082821b905092915050565b600060088302620004f37fffffffffffffffffffffffffffffffffffffffffffffffffffffffffffffffff82620004b4565b620004ff8683620004b4565b95508019841693508086168417925050509392505050565b6000819050919050565b6000620005426200053c620005368462000384565b62000517565b62000384565b9050919050565b6000819050919050565b6200055e8362000521565b620005766200056d8262000549565b848454620004c1565b825550505050565b600090565b6200058d6200057e565b6200059a81848462000553565b505050565b5b81811015620005c257620005b660008262000583565b600181019050620005a0565b5050565b601f8211156200061157620005db816200048f565b620005e684620004a4565b81016020851015620005f6578190505b6200060e6200060585620004a4565b8301826200059f565b50505b505050565b600082821c905092915050565b6000620006366000198460080262000616565b1980831691505092915050565b600062000651838362000623565b9150826002028217905092915050565b6200066c82620003f1565b67ffffffffffffffff811115620006885762000687620003fc565b5b6200069482546200045a565b620006a1828285620005c6565b600060209050601f831160018114620006d95760008415620006c4578287015190505b620006d0858262000643565b86555062000740565b601f198416620006e9866200048f565b60005b828110156200071357848901518255600182019150602085019450602081019050620006ec565b868310156200073357848901516200072f601f89168262000623565b8355505b6001600288020188555050505b505050505050565b6142a880620007586000396000f3fe608060405234801561001057600080fd5b50600436106101da5760003560e01c8063715018a611610104578063b88d4fde116100a2578063d5abeb0111610071578063d5abeb011461053d578063e985e9c51461055b578063eacabe141461058b578063f2fde38b146105bb576101da565b8063b88d4fde146104b7578063c87b56dd146104d3578063d539139314610503578063d547741f14610521576101da565b8063945d1229116100de578063945d12291461044357806395d89b411461045f578063a217fddf1461047d578063a22cb4651461049b576101da565b8063715018a6146103eb5780638da5cb5b146103f557806391d1485414610413576101da565b8063248a9ca31161017c5780636352211e1161014b5780636352211e1461035357806369e2f0fb146103835780636f8b44b01461039f57806370a08231146103bb576101da565b8063248a9ca3146102cf5780632f2ff15d146102ff57806336568abe1461031b57806342842e0e14610337576101da565b8063095ea7b3116101b8578063095ea7b31461025d57806318160ddd1461027957806318e97fd11461029757806323b872dd146102b3576101da565b806301ffc9a7146101df57806306fdde031461020f578063081812fc1461022d575b600080fd5b6101f960048036038101906101f49190612829565b6105d7565b6040516102069190612871565b60405180910390f35b6102176105e9565b604051610224919061291c565b60405180910390f35b61024760048036038101906102429190612974565b61067b565b60405161025491906129e2565b60405180910390f35b61027760048036038101906102729190612a29565b610700565b005b610281610817565b60405161028e9190612a78565b60405180910390f35b6102b160048036038101906102ac9190612bc8565b610821565b005b6102cd60048036038101906102c89190612c24565b6108ab565b005b6102e960048036038101906102e49190612cad565b61090b565b6040516102f69190612ce9565b60405180910390f35b61031960048036038101906103149190612d04565b61092b565b005b61033560048036038101906103309190612d04565b61094c565b005b610351600480360381019061034c9190612c24565b6109cf565b005b61036d60048036038101906103689190612974565b6109ef565b60405161037a91906129e2565b60405180910390f35b61039d60048036038101906103989190612d44565b610aa0565b005b6103b960048036038101906103b49190612974565b610b49565b005b6103d560048036038101906103d09190612d44565b610c13565b6040516103e29190612a78565b60405180910390f35b6103f3610cca565b005b6103fd610d52565b60405161040a91906129e2565b60405180910390f35b61042d60048036038101906104289190612d04565b610d7c565b60405161043a9190612871565b60405180910390f35b61045d60048036038101906104589190612d44565b610de7565b005b610467610e90565b604051610474919061291c565b60405180910390f35b610485610f22565b6040516104929190612ce9565b60405180910390f35b6104b560048036038101906104b09190612d9d565b610f29565b005b6104d160048036038101906104cc9190612e7e565b610f3f565b005b6104ed60048036038101906104e89190612974565b610fa1565b6040516104fa919061291c565b60405180910390f35b61050b610fb3565b6040516105189190612ce9565b60405180910390f35b61053b60048036038101906105369190612d04565b610fd7565b005b610545610ff8565b6040516105529190612a78565b60405180910390f35b61057560048036038101906105709190612f01565b610ffe565b6040516105829190612871565b60405180910390f35b6105a560048036038101906105a09190612f41565b611092565b6040516105b29190612a78565b60405180910390f35b6105d560048036038101906105d09190612d44565b611192565b005b60006105e282611289565b9050919050565b6060600080546105f890612fcc565b80601f016020809104026020016040519081016040528092919081815260200182805461062490612fcc565b80156106715780601f1061064657610100808354040283529160200191610671565b820191906000526020600020905b81548152906001019060200180831161065457829003601f168201915b5050505050905090565b600061068682611303565b6106c5576040517f08c379a00000000000000000000000000000000000000000000000000000000081526004016106bc9061306f565b60405180910390fd5b6004600083815260200190815260200160002060009054906101000a900473ffffffffffffffffffffffffffffffffffffffff169050919050565b600061070b826109ef565b90508073ffffffffffffffffffffffffffffffffffffffff168373ffffffffffffffffffffffffffffffffffffffff160361077b576040517f08c379a0000000000000000000000000000000000000000000000000000000008152600401610772906130db565b60405180910390fd5b8073ffffffffffffffffffffffffffffffffffffffff1661079a61136f565b73ffffffffffffffffffffffffffffffffffffffff1614806107c957506107c8816107c361136f565b610ffe565b5b610808576040517f08c379a00000000000000000000000000000000000000000000000000000000081526004016107ff9061316d565b60405180910390fd5b6108128383611377565b505050565b6000600954905090565b61082961136f565b73ffffffffffffffffffffffffffffffffffffffff16610847610d52565b73ffffffffffffffffffffffffffffffffffffffff161461089d576040517f08c379a0000000000000000000000000000000000000000000000000000000008152600401610894906131d9565b60405180910390fd5b6108a78282611430565b5050565b6108bc6108b661136f565b8261149d565b6108fb576040517f08c379a00000000000000000000000000000000000000000000000000000000081526004016108f29061326b565b60405180910390fd5b61090683838361157b565b505050565b600060086000838152602001908152602001600020600101549050919050565b6109348261090b565b61093d816117e1565b61094783836117f5565b505050565b61095461136f565b73ffffffffffffffffffffffffffffffffffffffff168173ffffffffffffffffffffffffffffffffffffffff16146109c1576040517f08c379a00000000000000000000000000000000000000000000000000000000081526004016109b8906132fd565b60405180910390fd5b6109cb82826118d6565b5050565b6109ea83838360405180602001604052806000815250610f3f565b505050565b6000806002600084815260200190815260200160002060009054906101000a900473ffffffffffffffffffffffffffffffffffffffff169050600073ffffffffffffffffffffffffffffffffffffffff168173ffffffffffffffffffffffffffffffffffffffff1603610a97576040517f08c379a0000000000000000000000000000000000000000000000000000000008152600401610a8e9061338f565b60405180910390fd5b80915050919050565b610aa861136f565b73ffffffffffffffffffffffffffffffffffffffff16610ac6610d52565b73ffffffffffffffffffffffffffffffffffffffff1614610b1c576040517f08c379a0000000000000000000000000000000000000000000000000000000008152600401610b13906131d9565b60405180910390fd5b610b467f9f2df0fed2c77648de5860a4cc508cd0818c85b8b8a1ab4ceeef8d981c8956a682610fd7565b50565b610b5161136f565b73ffffffffffffffffffffffffffffffffffffffff16610b6f610d52565b73ffffffffffffffffffffffffffffffffffffffff1614610bc5576040517f08c379a0000000000000000000000000000000000000000000000000000000008152600401610bbc906131d9565b60405180910390fd5b6009548111610c09576040517f08c379a0000000000000000000000000000000000000000000000000000000008152600401610c0090613421565b60405180910390fd5b80600a8190555050565b60008073ffffffffffffffffffffffffffffffffffffffff168273ffffffffffffffffffffffffffffffffffffffff1603610c83576040517f08c379a0000000000000000000000000000000000000000000000000000000008152600401610c7a906134b3565b60405180910390fd5b600360008373ffffffffffffffffffffffffffffffffffffffff1673ffffffffffffffffffffffffffffffffffffffff168152602001908152602001600020549050919050565b610cd261136f565b73ffffffffffffffffffffffffffffffffffffffff16610cf0610d52565b73ffffffffffffffffffffffffffffffffffffffff1614610d46576040517f08c379a0000000000000000000000000000000000000000000000000000000008152600401610d3d906131d9565b60405180910390fd5b610d5060006119b8565b565b6000600760009054906101000a900473ffffffffffffffffffffffffffffffffffffffff16905090565b60006008600084815260200190815260200160002060000160008373ffffffffffffffffffffffffffffffffffffffff1673ffffffffffffffffffffffffffffffffffffffff16815260200190815260200160002060009054906101000a900460ff16905092915050565b610def61136f565b73ffffffffffffffffffffffffffffffffffffffff16610e0d610d52565b73ffffffffffffffffffffffffffffffffffffffff1614610e63576040517f08c379a0000000000000000000000000000000000000000000000000000000008152600401610e5a906131d9565b60405180910390fd5b610e8d7f9f2df0fed2c77648de5860a4cc508cd0818c85b8b8a1ab4ceeef8d981c8956a68261092b565b50565b606060018054610e9f90612fcc565b80601f0160208091040260200160405190810160405280929190818152602001828054610ecb90612fcc565b8015610f185780601f10610eed57610100808354040283529160200191610f18565b820191906000526020600020905b815481529060010190602001808311610efb57829003601f168201915b5050505050905090565b6000801b81565b610f3b610f3461136f565b8383611a7e565b5050565b610f50610f4a61136f565b8361149d565b610f8f576040517f08c379a0000000000000000000000000000000000000000000000000000000008152600401610f869061326b565b60405180910390fd5b610f9b84848484611bea565b50505050565b6060610fac82611c59565b9050919050565b7f9f2df0fed2c77648de5860a4cc508cd0818c85b8b8a1ab4ceeef8d981c8956a681565b610fe08261090b565b610fe9816117e1565b610ff383836118d6565b505050565b600a5481565b6000600560008473ffffffffffffffffffffffffffffffffffffffff1673ffffffffffffffffffffffffffffffffffffffff16815260200190815260200160002060008373ffffffffffffffffffffffffffffffffffffffff1673ffffffffffffffffffffffffffffffffffffffff16815260200190815260200160002060009054906101000a900460ff16905092915050565b60007f9f2df0fed2c77648de5860a4cc508cd0818c85b8b8a1ab4ceeef8d981c8956a66110be816117e1565b600a5460095410611104576040517f08c379a00000000000000000000000000000000000000000000000000000000081526004016110fb9061351f565b60405180910390fd5b600960008154809291906111179061356e565b91905055506000600954905061112d8582611daa565b6111378185611430565b8473ffffffffffffffffffffffffffffffffffffffff167fe7cd4ce7f2a465edc730269a1305e8a48bad821e8fb7e152ec413829c01a53c4828660405161117f9291906135b6565b60405180910390a2809250505092915050565b61119a61136f565b73ffffffffffffffffffffffffffffffffffffffff166111b8610d52565b73ffffffffffffffffffffffffffffffffffffffff161461120e576040517f08c379a0000000000000000000000000000000000000000000000000000000008152600401611205906131d9565b60405180910390fd5b600073ffffffffffffffffffffffffffffffffffffffff168173ffffffffffffffffffffffffffffffffffffffff160361127d576040517f08c379a000000000000000000000000000000000000000000000000000000000815260040161127490613658565b60405180910390fd5b611286816119b8565b50565b60007f7965db0b000000000000000000000000000000000000000000000000000000007bffffffffffffffffffffffffffffffffffffffffffffffffffffffff1916827bffffffffffffffffffffffffffffffffffffffffffffffffffffffff191614806112fc57506112fb82611f83565b5b9050919050565b60008073ffffffffffffffffffffffffffffffffffffffff166002600084815260200190815260200160002060009054906101000a900473ffffffffffffffffffffffffffffffffffffffff1673ffffffffffffffffffffffffffffffffffffffff1614159050919050565b600033905090565b816004600083815260200190815260200160002060006101000a81548173ffffffffffffffffffffffffffffffffffffffff021916908373ffffffffffffffffffffffffffffffffffffffff160217905550808273ffffffffffffffffffffffffffffffffffffffff166113ea836109ef565b73ffffffffffffffffffffffffffffffffffffffff167f8c5be1e5ebec7d5bd14f71427d1e84f3dd0314c0f7b2291e5b200ac8c7c3b92560405160405180910390a45050565b61143982611303565b611478576040517f08c379a000000000000000000000000000000000000000000000000000000000815260040161146f906136ea565b60405180910390fd5b8060066000848152602001908152602001600020908161149891906138b6565b505050565b60006114a882611303565b6114e7576040517f08c379a00000000000000000000000000000000000000000000000000000000081526004016114de906139fa565b60405180910390fd5b60006114f2836109ef565b90508073ffffffffffffffffffffffffffffffffffffffff168473ffffffffffffffffffffffffffffffffffffffff16148061153457506115338185610ffe565b5b8061157257508373ffffffffffffffffffffffffffffffffffffffff1661155a8461067b565b73ffffffffffffffffffffffffffffffffffffffff16145b91505092915050565b8273ffffffffffffffffffffffffffffffffffffffff1661159b826109ef565b73ffffffffffffffffffffffffffffffffffffffff16146115f1576040517f08c379a00000000000000000000000000000000000000000000000000000000081526004016115e890613a8c565b60405180910390fd5b600073ffffffffffffffffffffffffffffffffffffffff168273ffffffffffffffffffffffffffffffffffffffff1603611660576040517f08c379a000000000000000000000000000000000000000000000000000000000815260040161165790613b1e565b60405180910390fd5b61166b838383611fed565b611676600082611377565b6001600360008573ffffffffffffffffffffffffffffffffffffffff1673ffffffffffffffffffffffffffffffffffffffff16815260200190815260200160002060008282546116c69190613b3e565b925050819055506001600360008473ffffffffffffffffffffffffffffffffffffffff1673ffffffffffffffffffffffffffffffffffffffff168152602001908152602001600020600082825461171d9190613b72565b92505081905550816002600083815260200190815260200160002060006101000a81548173ffffffffffffffffffffffffffffffffffffffff021916908373ffffffffffffffffffffffffffffffffffffffff160217905550808273ffffffffffffffffffffffffffffffffffffffff168473ffffffffffffffffffffffffffffffffffffffff167fddf252ad1be2c89b69c2b068fc378daa952ba7f163c4a11628f55a4df523b3ef60405160405180910390a46117dc838383611ff2565b505050565b6117f2816117ed61136f565b611ff7565b50565b6117ff8282610d7c565b6118d25760016008600084815260200190815260200160002060000160008373ffffffffffffffffffffffffffffffffffffffff1673ffffffffffffffffffffffffffffffffffffffff16815260200190815260200160002060006101000a81548160ff02191690831515021790555061187761136f565b73ffffffffffffffffffffffffffffffffffffffff168173ffffffffffffffffffffffffffffffffffffffff16837f2f8788117e7eff1d82e926ec794901d17c78024a50270940304540a733656f0d60405160405180910390a45b5050565b6118e08282610d7c565b156119b45760006008600084815260200190815260200160002060000160008373ffffffffffffffffffffffffffffffffffffffff1673ffffffffffffffffffffffffffffffffffffffff16815260200190815260200160002060006101000a81548160ff02191690831515021790555061195961136f565b73ffffffffffffffffffffffffffffffffffffffff168173ffffffffffffffffffffffffffffffffffffffff16837ff6391f5c32d9c69d2a47ea670b442974b53935d1edc7fd64eb21e047a839171b60405160405180910390a45b5050565b6000600760009054906101000a900473ffffffffffffffffffffffffffffffffffffffff16905081600760006101000a81548173ffffffffffffffffffffffffffffffffffffffff021916908373ffffffffffffffffffffffffffffffffffffffff1602179055508173ffffffffffffffffffffffffffffffffffffffff168173ffffffffffffffffffffffffffffffffffffffff167f8be0079c531659141344cd1fd0a4f28419497f9722a3daafe3b4186f6b6457e060405160405180910390a35050565b8173ffffffffffffffffffffffffffffffffffffffff168373ffffffffffffffffffffffffffffffffffffffff1603611aec576040517f08c379a0000000000000000000000000000000000000000000000000000000008152600401611ae390613bf2565b60405180910390fd5b80600560008573ffffffffffffffffffffffffffffffffffffffff1673ffffffffffffffffffffffffffffffffffffffff16815260200190815260200160002060008473ffffffffffffffffffffffffffffffffffffffff1673ffffffffffffffffffffffffffffffffffffffff16815260200190815260200160002060006101000a81548160ff0219169083151502179055508173ffffffffffffffffffffffffffffffffffffffff168373ffffffffffffffffffffffffffffffffffffffff167f17307eab39ab6107e8899845ad3d59bd9653f200f220920489ca2b5937696c3183604051611bdd9190612871565b60405180910390a3505050565b611bf584848461157b565b611c0184848484612094565b80611c145750611c13848484846121ea565b5b611c53576040517f08c379a0000000000000000000000000000000000000000000000000000000008152600401611c4a90613caa565b60405180910390fd5b50505050565b6060611c6482611303565b611ca3576040517f08c379a0000000000000000000000000000000000000000000000000000000008152600401611c9a90613d3c565b60405180910390fd5b6000600660008481526020019081526020016000208054611cc390612fcc565b80601f0160208091040260200160405190810160405280929190818152602001828054611cef90612fcc565b8015611d3c5780601f10611d1157610100808354040283529160200191611d3c565b820191906000526020600020905b815481529060010190602001808311611d1f57829003601f168201915b505050505090506000611d4d612340565b90506000815103611d62578192505050611da5565b600082511115611d97578082604051602001611d7f929190613d98565b60405160208183030381529060405292505050611da5565b611da084612357565b925050505b919050565b600073ffffffffffffffffffffffffffffffffffffffff168273ffffffffffffffffffffffffffffffffffffffff1603611e19576040517f08c379a0000000000000000000000000000000000000000000000000000000008152600401611e1090613e08565b60405180910390fd5b611e2281611303565b15611e62576040517f08c379a0000000000000000000000000000000000000000000000000000000008152600401611e5990613e74565b60405180910390fd5b611e6e60008383611fed565b6001600360008473ffffffffffffffffffffffffffffffffffffffff1673ffffffffffffffffffffffffffffffffffffffff1681526020019081526020016000206000828254611ebe9190613b72565b92505081905550816002600083815260200190815260200160002060006101000a81548173ffffffffffffffffffffffffffffffffffffffff021916908373ffffffffffffffffffffffffffffffffffffffff160217905550808273ffffffffffffffffffffffffffffffffffffffff16600073ffffffffffffffffffffffffffffffffffffffff167fddf252ad1be2c89b69c2b068fc378daa952ba7f163c4a11628f55a4df523b3ef60405160405180910390a4611f7f60008383611ff2565b5050565b60007f01ffc9a7000000000000000000000000000000000000000000000000000000007bffffffffffffffffffffffffffffffffffffffffffffffffffffffff1916827bffffffffffffffffffffffffffffffffffffffffffffffffffffffff1916149050919050565b505050565b505050565b6120018282610d7c565b612090576120268173ffffffffffffffffffffffffffffffffffffffff1660146123fe565b6120348360001c60206123fe565b604051602001612045929190613f2c565b6040516020818303038152906040526040517f08c379a0000000000000000000000000000000000000000000000000000000008152600401612087919061291c565b60405180910390fd5b5050565b60006120b58473ffffffffffffffffffffffffffffffffffffffff1661263a565b156121dd578373ffffffffffffffffffffffffffffffffffffffff16636745782b6120de61136f565b8786866040518563ffffffff1660e01b81526004016121009493929190613fbb565b6020604051808303816000875af192505050801561213c57506040513d601f19601f82011682018060405250810190612139919061401c565b60015b61218d573d806000811461216c576040519150601f19603f3d011682016040523d82523d6000602084013e612171565b606091505b5060008151036121855760009150506121e2565b805181602001fd5b636745782b60e01b7bffffffffffffffffffffffffffffffffffffffffffffffffffffffff1916817bffffffffffffffffffffffffffffffffffffffffffffffffffffffff1916149150506121e2565b600190505b949350505050565b600061220b8473ffffffffffffffffffffffffffffffffffffffff1661263a565b15612333578373ffffffffffffffffffffffffffffffffffffffff1663150b7a0261223461136f565b8786866040518563ffffffff1660e01b81526004016122569493929190613fbb565b6020604051808303816000875af192505050801561229257506040513d601f19601f8201168201806040525081019061228f919061401c565b60015b6122e3573d80600081146122c2576040519150601f19603f3d011682016040523d82523d6000602084013e6122c7565b606091505b5060008151036122db576000915050612338565b805181602001fd5b63150b7a0260e01b7bffffffffffffffffffffffffffffffffffffffffffffffffffffffff1916817bffffffffffffffffffffffffffffffffffffffffffffffffffffffff191614915050612338565b600190505b949350505050565b606060405180602001604052806000815250905090565b606061236282611303565b6123a1576040517f08c379a0000000000000000000000000000000000000000000000000000000008152600401612398906140bb565b60405180910390fd5b60006123ab612340565b905060008151116123cb57604051806020016040528060008152506123f6565b806123d58461265d565b6040516020016123e6929190613d98565b6040516020818303038152906040525b915050919050565b60606000600283600261241191906140db565b61241b9190613b72565b67ffffffffffffffff81111561243457612433612a9d565b5b6040519080825280601f01601f1916602001820160405280156124665781602001600182028036833780820191505090505b5090507f30000000000000000000000000000000000000000000000000000000000000008160008151811061249e5761249d61411d565b5b60200101907effffffffffffffffffffffffffffffffffffffffffffffffffffffffffffff1916908160001a9053507f7800000000000000000000000000000000000000000000000000000000000000816001815181106125025761250161411d565b5b60200101907effffffffffffffffffffffffffffffffffffffffffffffffffffffffffffff1916908160001a9053506000600184600261254291906140db565b61254c9190613b72565b90505b60018111156125ec577f3031323334353637383961626364656600000000000000000000000000000000600f86166010811061258e5761258d61411d565b5b1a60f81b8282815181106125a5576125a461411d565b5b60200101907effffffffffffffffffffffffffffffffffffffffffffffffffffffffffffff1916908160001a905350600485901c9450806125e59061414c565b905061254f565b5060008414612630576040517f08c379a0000000000000000000000000000000000000000000000000000000008152600401612627906141c1565b60405180910390fd5b8091505092915050565b6000808273ffffffffffffffffffffffffffffffffffffffff163b119050919050565b6060600082036126a4576040518060400160405280600181526020017f300000000000000000000000000000000000000000000000000000000000000081525090506127b8565b600082905060005b600082146126d65780806126bf9061356e565b915050600a826126cf9190614210565b91506126ac565b60008167ffffffffffffffff8111156126f2576126f1612a9d565b5b6040519080825280601f01601f1916602001820160405280156127245781602001600182028036833780820191505090505b5090505b600085146127b15760018261273d9190613b3e565b9150600a8561274c9190614241565b60306127589190613b72565b60f81b81838151811061276e5761276d61411d565b5b60200101907effffffffffffffffffffffffffffffffffffffffffffffffffffffffffffff1916908160001a905350600a856127aa9190614210565b9450612728565b8093505050505b919050565b6000604051905090565b600080fd5b600080fd5b60007fffffffff0000000000000000000000000000000000000000000000000000000082169050919050565b612806816127d1565b811461281157600080fd5b50565b600081359050612823816127fd565b92915050565b60006020828403121561283f5761283e6127c7565b5b600061284d84828501612814565b91505092915050565b60008115159050919050565b61286b81612856565b82525050565b60006020820190506128866000830184612862565b92915050565b600081519050919050565b600082825260208201905092915050565b60005b838110156128c65780820151818401526020810190506128ab565b60008484015250505050565b6000601f19601f8301169050919050565b60006128ee8261288c565b6128f88185612897565b93506129088185602086016128a8565b612911816128d2565b840191505092915050565b6000602082019050818103600083015261293681846128e3565b905092915050565b6000819050919050565b6129518161293e565b811461295c57600080fd5b50565b60008135905061296e81612948565b92915050565b60006020828403121561298a576129896127c7565b5b60006129988482850161295f565b91505092915050565b600073ffffffffffffffffffffffffffffffffffffffff82169050919050565b60006129cc826129a1565b9050919050565b6129dc816129c1565b82525050565b60006020820190506129f760008301846129d3565b92915050565b612a06816129c1565b8114612a1157600080fd5b50565b600081359050612a23816129fd565b92915050565b60008060408385031215612a4057612a3f6127c7565b5b6000612a4e85828601612a14565b9250506020612a5f8582860161295f565b9150509250929050565b612a728161293e565b82525050565b6000602082019050612a8d6000830184612a69565b92915050565b600080fd5b600080fd5b7f4e487b7100000000000000000000000000000000000000000000000000000000600052604160045260246000fd5b612ad5826128d2565b810181811067ffffffffffffffff82111715612af457612af3612a9d565b5b80604052505050565b6000612b076127bd565b9050612b138282612acc565b919050565b600067ffffffffffffffff821115612b3357612b32612a9d565b5b612b3c826128d2565b9050602081019050919050565b82818337600083830152505050565b6000612b6b612b6684612b18565b612afd565b905082815260208101848484011115612b8757612b86612a98565b5b612b92848285612b49565b509392505050565b600082601f830112612baf57612bae612a93565b5b8135612bbf848260208601612b58565b91505092915050565b60008060408385031215612bdf57612bde6127c7565b5b6000612bed8582860161295f565b925050602083013567ffffffffffffffff811115612c0e57612c0d6127cc565b5b612c1a85828601612b9a565b9150509250929050565b600080600060608486031215612c3d57612c3c6127c7565b5b6000612c4b86828701612a14565b9350506020612c5c86828701612a14565b9250506040612c6d8682870161295f565b9150509250925092565b6000819050919050565b612c8a81612c77565b8114612c9557600080fd5b50565b600081359050612ca781612c81565b92915050565b600060208284031215612cc357612cc26127c7565b5b6000612cd184828501612c98565b91505092915050565b612ce381612c77565b82525050565b6000602082019050612cfe6000830184612cda565b92915050565b60008060408385031215612d1b57612d1a6127c7565b5b6000612d2985828601612c98565b9250506020612d3a85828601612a14565b9150509250929050565b600060208284031215612d5a57612d596127c7565b5b6000612d6884828501612a14565b91505092915050565b612d7a81612856565b8114612d8557600080fd5b50565b600081359050612d9781612d71565b92915050565b60008060408385031215612db457612db36127c7565b5b6000612dc285828601612a14565b9250506020612dd385828601612d88565b9150509250929050565b600067ffffffffffffffff821115612df857612df7612a9d565b5b612e01826128d2565b9050602081019050919050565b6000612e21612e1c84612ddd565b612afd565b905082815260208101848484011115612e3d57612e3c612a98565b5b612e48848285612b49565b509392505050565b600082601f830112612e6557612e64612a93565b5b8135612e75848260208601612e0e565b91505092915050565b60008060008060808587031215612e9857612e976127c7565b5b6000612ea687828801612a14565b9450506020612eb787828801612a14565b9350506040612ec88782880161295f565b925050606085013567ffffffffffffffff811115612ee957612ee86127cc565b5b612ef587828801612e50565b91505092959194509250565b60008060408385031215612f1857612f176127c7565b5b6000612f2685828601612a14565b9250506020612f3785828601612a14565b9150509250929050565b60008060408385031215612f5857612f576127c7565b5b6000612f6685828601612a14565b925050602083013567ffffffffffffffff811115612f8757612f866127cc565b5b612f9385828601612b9a565b9150509250929050565b7f4e487b7100000000000000000000000000000000000000000000000000000000600052602260045260246000fd5b60006002820490506001821680612fe457607f821691505b602082108103612ff757612ff6612f9d565b5b50919050565b7f4b495031373a20617070726f76656420717565727920666f72206e6f6e65786960008201527f7374656e7420746f6b656e000000000000000000000000000000000000000000602082015250565b6000613059602b83612897565b915061306482612ffd565b604082019050919050565b600060208201905081810360008301526130888161304c565b9050919050565b7f4b495031373a20617070726f76616c20746f2063757272656e74206f776e6572600082015250565b60006130c5602083612897565b91506130d08261308f565b602082019050919050565b600060208201905081810360008301526130f4816130b8565b9050919050565b7f4b495031373a20617070726f76652063616c6c6572206973206e6f74206f776e60008201527f6572206e6f7220617070726f76656420666f7220616c6c000000000000000000602082015250565b6000613157603783612897565b9150613162826130fb565b604082019050919050565b600060208201905081810360008301526131868161314a565b9050919050565b7f4f776e61626c653a2063616c6c6572206973206e6f7420746865206f776e6572600082015250565b60006131c3602083612897565b91506131ce8261318d565b602082019050919050565b600060208201905081810360008301526131f2816131b6565b9050919050565b7f4b495031373a207472616e736665722063616c6c6572206973206e6f74206f7760008201527f6e6572206e6f7220617070726f76656400000000000000000000000000000000602082015250565b6000613255603083612897565b9150613260826131f9565b604082019050919050565b6000602082019050818103600083015261328481613248565b9050919050565b7f416363657373436f6e74726f6c3a2063616e206f6e6c792072656e6f756e636560008201527f20726f6c657320666f722073656c660000000000000000000000000000000000602082015250565b60006132e7602f83612897565b91506132f28261328b565b604082019050919050565b60006020820190508181036000830152613316816132da565b9050919050565b7f4b495031373a206f776e657220717565727920666f72206e6f6e65786973746560008201527f6e7420746f6b656e000000000000000000000000000000000000000000000000602082015250565b6000613379602883612897565b91506133848261331d565b604082019050919050565b600060208201905081810360008301526133a88161336c565b9050919050565b7f4e6577206d617820737570706c79206d7573742062652067726561746572207460008201527f68616e2063757272656e7420737570706c790000000000000000000000000000602082015250565b600061340b603283612897565b9150613416826133af565b604082019050919050565b6000602082019050818103600083015261343a816133fe565b9050919050565b7f4b495031373a2061646472657373207a65726f206973206e6f7420612076616c60008201527f6964206f776e6572000000000000000000000000000000000000000000000000602082015250565b600061349d602883612897565b91506134a882613441565b604082019050919050565b600060208201905081810360008301526134cc81613490565b9050919050565b7f4d617820737570706c7920726561636865640000000000000000000000000000600082015250565b6000613509601283612897565b9150613514826134d3565b602082019050919050565b60006020820190508181036000830152613538816134fc565b9050919050565b7f4e487b7100000000000000000000000000000000000000000000000000000000600052601160045260246000fd5b60006135798261293e565b91507fffffffffffffffffffffffffffffffffffffffffffffffffffffffffffffffff82036135ab576135aa61353f565b5b600182019050919050565b60006040820190506135cb6000830185612a69565b81810360208301526135dd81846128e3565b90509392505050565b7f4f776e61626c653a206e6577206f776e657220697320746865207a65726f206160008201527f6464726573730000000000000000000000000000000000000000000000000000602082015250565b6000613642602683612897565b915061364d826135e6565b604082019050919050565b6000602082019050818103600083015261367181613635565b9050919050565b7f4b4950313755524953746f726167653a2055524920736574206f66206e6f6e6560008201527f78697374656e7420746f6b656e00000000000000000000000000000000000000602082015250565b60006136d4602d83612897565b91506136df82613678565b604082019050919050565b60006020820190508181036000830152613703816136c7565b9050919050565b60008190508160005260206000209050919050565b60006020601f8301049050919050565b600082821b905092915050565b60006008830261376c7fffffffffffffffffffffffffffffffffffffffffffffffffffffffffffffffff8261372f565b613776868361372f565b95508019841693508086168417925050509392505050565b6000819050919050565b60006137b36137ae6137a98461293e565b61378e565b61293e565b9050919050565b6000819050919050565b6137cd83613798565b6137e16137d9826137ba565b84845461373c565b825550505050565b600090565b6137f66137e9565b6138018184846137c4565b505050565b5b818110156138255761381a6000826137ee565b600181019050613807565b5050565b601f82111561386a5761383b8161370a565b6138448461371f565b81016020851015613853578190505b61386761385f8561371f565b830182613806565b50505b505050565b600082821c905092915050565b600061388d6000198460080261386f565b1980831691505092915050565b60006138a6838361387c565b9150826002028217905092915050565b6138bf8261288c565b67ffffffffffffffff8111156138d8576138d7612a9d565b5b6138e28254612fcc565b6138ed828285613829565b600060209050601f831160018114613920576000841561390e578287015190505b613918858261389a565b865550613980565b601f19841661392e8661370a565b60005b8281101561395657848901518255600182019150602085019450602081019050613931565b86831015613973578489015161396f601f89168261387c565b8355505b6001600288020188555050505b505050505050565b7f4b495031373a206f70657261746f7220717565727920666f72206e6f6e65786960008201527f7374656e7420746f6b656e000000000000000000000000000000000000000000602082015250565b60006139e4602b83612897565b91506139ef82613988565b604082019050919050565b60006020820190508181036000830152613a13816139d7565b9050919050565b7f4b495031373a207472616e736665722066726f6d20696e636f7272656374206f60008201527f776e657200000000000000000000000000000000000000000000000000000000602082015250565b6000613a76602483612897565b9150613a8182613a1a565b604082019050919050565b60006020820190508181036000830152613aa581613a69565b9050919050565b7f4b495031373a207472616e7366657220746f20746865207a65726f206164647260008201527f6573730000000000000000000000000000000000000000000000000000000000602082015250565b6000613b08602383612897565b9150613b1382613aac565b604082019050919050565b60006020820190508181036000830152613b3781613afb565b9050919050565b6000613b498261293e565b9150613b548361293e565b9250828203905081811115613b6c57613b6b61353f565b5b92915050565b6000613b7d8261293e565b9150613b888361293e565b9250828201905080821115613ba057613b9f61353f565b5b92915050565b7f4b495031373a20617070726f766520746f2063616c6c65720000000000000000600082015250565b6000613bdc601883612897565b9150613be782613ba6565b602082019050919050565b60006020820190508181036000830152613c0b81613bcf565b9050919050565b7f4b495031373a207472616e7366657220746f206e6f6e20494b4950313752656360008201527f65697665722f49455243373231526563656976657220696d706c656d656e746560208201527f7200000000000000000000000000000000000000000000000000000000000000604082015250565b6000613c94604183612897565b9150613c9f82613c12565b606082019050919050565b60006020820190508181036000830152613cc381613c87565b9050919050565b7f4b4950313755524953746f726167653a2055524920717565727920666f72206e60008201527f6f6e6578697374656e7420746f6b656e00000000000000000000000000000000602082015250565b6000613d26603083612897565b9150613d3182613cca565b604082019050919050565b60006020820190508181036000830152613d5581613d19565b9050919050565b600081905092915050565b6000613d728261288c565b613d7c8185613d5c565b9350613d8c8185602086016128a8565b80840191505092915050565b6000613da48285613d67565b9150613db08284613d67565b91508190509392505050565b7f4b495031373a206d696e7420746f20746865207a65726f206164647265737300600082015250565b6000613df2601f83612897565b9150613dfd82613dbc565b602082019050919050565b60006020820190508181036000830152613e2181613de5565b9050919050565b7f4b495031373a20746f6b656e20616c7265616479206d696e7465640000000000600082015250565b6000613e5e601b83612897565b9150613e6982613e28565b602082019050919050565b60006020820190508181036000830152613e8d81613e51565b9050919050565b7f416363657373436f6e74726f6c3a206163636f756e7420000000000000000000600082015250565b6000613eca601783613d5c565b9150613ed582613e94565b601782019050919050565b7f206973206d697373696e6720726f6c6520000000000000000000000000000000600082015250565b6000613f16601183613d5c565b9150613f2182613ee0565b601182019050919050565b6000613f3782613ebd565b9150613f438285613d67565b9150613f4e82613f09565b9150613f5a8284613d67565b91508190509392505050565b600081519050919050565b600082825260208201905092915050565b6000613f8d82613f66565b613f978185613f71565b9350613fa78185602086016128a8565b613fb0816128d2565b840191505092915050565b6000608082019050613fd060008301876129d3565b613fdd60208301866129d3565b613fea6040830185612a69565b8181036060830152613ffc8184613f82565b905095945050505050565b600081519050614016816127fd565b92915050565b600060208284031215614032576140316127c7565b5b600061404084828501614007565b91505092915050565b7f4b495031374d657461646174613a2055524920717565727920666f72206e6f6e60008201527f6578697374656e7420746f6b656e000000000000000000000000000000000000602082015250565b60006140a5602e83612897565b91506140b082614049565b604082019050919050565b600060208201905081810360008301526140d481614098565b9050919050565b60006140e68261293e565b91506140f18361293e565b92508282026140ff8161293e565b915082820484148315176141165761411561353f565b5b5092915050565b7f4e487b7100000000000000000000000000000000000000000000000000000000600052603260045260246000fd5b60006141578261293e565b91506000820361416a5761416961353f565b5b600182039050919050565b7f537472696e67733a20686578206c656e67746820696e73756666696369656e74600082015250565b60006141ab602083612897565b91506141b682614175565b602082019050919050565b600060208201905081810360008301526141da8161419e565b9050919050565b7f4e487b7100000000000000000000000000000000000000000000000000000000600052601260045260246000fd5b600061421b8261293e565b91506142268361293e565b925082614236576142356141e1565b5b828204905092915050565b600061424c8261293e565b91506142578361293e565b925082614267576142666141e1565b5b82820690509291505056fea2646970667358221220948d7322d459330bbf38c4a6730aacfe9cc7ced3ab305a01f9c205c560cfa6c864736f6c63430008110033",
  "linkReferences": {},
  "deployedLinkReferences": {}
}